S01C000047616D655F544541445F416C69656E735F3634412E737265634C
S11300000C94623F0C948A3F0C948A3F0C948A3F70
S11300100C948A3F0C948A3F0C9484620C948A3F1B
S11300200C948A3F0C948A3F0C948A3F0C948A3F28
S11300300C94D2650C948A3F0C948A3F0C948A3FAA
S11300400C948A3F0C948A3F0C949B660C948A3FD0
S11300500C948A3F0C948A3F0C948A3F0C948A3FF8
S11300600C948A3F0C948A3F0C948A3F0C948A3FE8
S11300700C948A3F0C948A3F0C94DB660C948A3F60
S11300800C948A3F0C948A3F0C948A3F0000000031
S113009000000000202020202000200050505000AC
S11300A0000000005050F850F85050002078A07024
S11300B028F02000C0C810204098180040A040A894
S11300C09098600010204000000000001020404084
S11300D040201000402010101020400020A8702064
S11300E070A82000002020F820200000000000005C
S11300F00020204000000078000000000000000004
S1130100006060000000081020408000708898A8FB
S1130110C88870002060A0202020F8007088087033
S11301208080F80070880830088870001030509083
S1130130F8101000F88080F00808F000708080F05B
S113014088887000F888101010101000708888706B
S11301508888700070888878080870000000200083
S1130160002000000000200000202040183060C063
S1130170603018000000F800F8000000C06030187B
S11301803060C00070880810200020007088084883
S1130190A8A8700070888888F8888800F08888F09B
S11301A08888F0007088808080887000F088888853
S11301B08888F000F88080F08080F800F88080F073
S11301C080808000708880B888887000888888F86B
S11301D0888888002000202020207000381010100B
S11301E0909060008890A0C0A0908800808080805B
S11301F08080F80088D8A8A88888880088C8C8A8FB
S1130200989888007088888888887000F08888F0BA
S11302108080800070888888A8906800F08888F0C2
S1130220A09088007088807008887000F8202020D2
S1130230202020008888888888887000888888889A
S113024050502000888888A8A8D888008888502022
S1130250508888008888887020202000F8081020A2
S11302604080F800704040404040700000008040F2
S1130270201008007010101010107000205088001A
S113028000000000000000000000F8008040200092
S11302900000000000007008788878008080B0C8F2
S11302A088C8B000000070888088700008086898CA
S11302B08898680000007088F8807000102820F882
S11302C02020200000006898986808708080F088DA
S11302D088888800200060202020700010003010E2
S11302E0101090604040485060504800602020202A
S11302F0202070000000D0A8A8A8A8000000B0C862
S11303008888880000007088888870000000B0C861
S1130310C8B0808000006898986808080000B0C8D9
S113032080808000000078807008F0004040F04039
S11303304048300000009090909068000000888849
S113034088502000000088A8A8A850000000885009
S11303502050880000008888986808700000F81011
S11303602040F800182020402020180020202000E1
S113037020202000C02020102020C00040A8100011
S1130380000000000202020002A2A702070264C1E8
S1130390E264C162A26080E04281818142E2E2E7DC
S11303A0E2E200000720C00001020440E6A2A2A28B
S11303B0E7E721E781E7A7A4E72127E781E1A1E1B6
S11303C0E7A5E7A1E70041004106204780472087D1
S11303D045224082E2E5A7C5E5C3A4C4A4C3C7A4DB
S11303E0A7A4C7E384E58587A2A0E2A2A265252687
S11303F0A54585878585E5C2A5A5A5A2C2A5C5870E
S113040083C3A4C7A1A6E545454547A5A5A5A7451A
S1130410A5A543A1A6E6244484E603814121034023
S1130420A000000780400305070080E7A4E7002040
S1130430E7A6E76047E445C70082E0A2A24004457E
S1130440468500404747650000C7A5A700E7A5E724
S1130450810000E382860040E545670000A5A747C8
S11304600005A741A60106C44661444341434440F4
S1130470E00000004B4559530050524553530020AF
S11304804F564552002047414D4500535441525464
S1130490002047414D4500204F564552002047411A
S11304A04D45005354415254002047414D450001ED
S11304B00188130000881300000108141B00007F4A
S11304C07F7F7F7F7F7F7F7F7F7F7F7F7F7F7F7F38
S11304D07F7F7F7F7F7F7F7F7F7F7F7F7F7F7F7F28
S11304E07F7F7F7F7F7F7F7F7F7F7F7F7F7F7F7F18
S11304F07F7F7F7F7F7F7F7F7F7F7E7F7F7F7F7E0A
S11305007F7F7F7F7F7F7F7E7F7F817F807F8083F0
S11305107E818182867F7882777780777C76777810
S11305207782767E767F7C7B7C8B8C817778797DF5
S11305307D7D8382858680827D7F82837C7D7F7FB3
S1130540857E7D7F81887A7D77807D7F857D877DAF
S11305507D7D7982838280797A818182857B7A78B4
S11305607A817F83837A787C7E7F837E7C7D7B7FA8
S1130570827F7E817A7F7E7F817C7F7F837F82847E
S11305807F817F7E7C7F7B7C7A7D827F838280817A
S11305907A847B817E8181807C7D7E808382797E6A
S11305A0797E7B7B7E81807E7D7C7E80807B7E7E6F
S11305B0837D7D807D84807C7D80868084777F8040
S11305C0827E877D7D837F807F7C807E76877E832D
S11305D081807C887D82807A87807F7E797A7F861D
S11305E07F7A7D86897F80798381857B7C7F817812
S11305F0847D8C7B88757B807B7E848683827B7DF7
S113060084837A82798C7C847F8077887689797DEB
S11306107480827F87797D7A827F759076838479EE
S11306208A7E7F7B7B89728473828F7380788C78D7
S113063084708380747A848D7A7E788B76867284D3
S11306408777848C71837690838A75807B837A889C
S113065079878D73886F947B87806C87788E7779A0
S1130660778C8C7872948788826B8D8B8B7E538584
S11306707A7D7862878A84697FA297717F7EA67764
S113068083836F826170885F8A6D8F9376967A9880
S11306908C7C9C6F8A7670816A6774737B759F7596
S11306A09C8C759E74A17D826D7574765F5C807F71
S11306B08F768E8D85A080977A8B856D8A636A5438
S11306C0638B82957A779A889D839185867D7F7BDB
S11306D06F55478789A6806B88949C8C848C85860B
S11306E06C7B7B5E46389B8E977D71A29A917E943B
S11306F0927D865D875A493888AE96857094A09419
S11307008A82998C716F6F6C3A3BACA59D7C6E9C10
S1130710A292857FA27F7061716C3132C3A29884EA
S11307205CAEA68E8782A47D66626D612678B9A2CE
S11307308D6A80ACA3857D94966C686161372FCBFC
S1130740A7988159A4B18F83829F7B69665F5229E0
S1130750A2B69784618AB79D7D8099897063595741
S1130760227ECC99845B7BBFAE8171959775695865
S1130770573349DCB1936A59B2B8917584A0796E44
S11307805A4A423AD3B797704EA0BD9A7E739D7E63
S1130790735E4D4B26B7BD996F478FC6AA81699F7B
S11307A08F7363495F1E7ED89C87426DCAB98F5E82
S11307B09196796C51512650E8A192524FBFC09D39
S11307C065769F7C774B513240F7B7A85E38A5C257
S11307D0AC7A61A18182544D492BC2C0AC722D8B7D
S11307E0C5BA8C59908C8462484D28A7D0A17A3917
S11307F07ECAC0985D83938378424C216BEDA691A9
S11308004A60C0C1A2657293807D4840305FEEB0FB
S11308109D5749B3C1AB756F907C854E3E2852FC01
S1130820B3A4503BB0BAB877678F798A4C43244E4F
S1130830F6AEA84D3FA8BFC57B748A7D8E51452076
S11308405CF9B9AD5445A5B8C9817C7E7C904E4C09
S1130850185EF8B2A3474BA6B6CD7D7D7678884F57
S1130860451569DAB39A4B54A4B5CE7B847074876A
S11308704D420F7EC0B691335F9ABDCA798F5C81B9
S1130880784F4116B4A8C97C2C6C8DCDBC82875698
S11308908C6F583A26E5A3CC76367B86CDB08B7D1B
S11308A052835E5B2844E6A8C96B477E89C8999B3E
S11308B06D60784B5D1B65BCBAAB5C5974A6C19B7B
S11308C0A1637064514B26AD9BC8814A5B6EAEB97F
S11308D0A4895B735F583B3BDA9DD279536A74B148
S11308E0A6AE81646751552C57BFAFBF75656C9434
S11308F0B4ADAE7971594B442A84A1C197615A6150
S113090099AAAE9A746A59473C40C199D88B6766D4
S11309105F9EA3BD927A6349472650C3BBD58D77AA
S1130920617C96A7BF907D564139257EA0D7A980CA
S1130930694C7B87ACB0958154452A36AA91E7AAC5
S113094089734E6F82B1A3A17B5341162FA0A7E2F6
S1130950BDA6736D676FA78FA68762471B4A63B7EF
S1130960B5BFC07B835C608A809B85764F3B6C52AD
S11309709698A8B9979176646E677A7A837D74792C
S1130980637071838E94958D837E7E858989888238
S11309907B726D696D717982898D8B8C8C8B8A8861
S11309A085827C73736C6B6C6F767D82878A8D8F86
S11309B090908E8A857F77736D6B6B6E74787E8270
S11309C0868A8D9091908E89837C766F6C6B6C7027
S11309D0747A7F84888A8D8F90908C89827B766FDD
S11309E06E6C6D72767B808487898C8E8F8E8B87FC
S11309F0817B76716F6E7073777B7F8386888A8C38
S1130A008D8C8B88837D797472717174777A7E8012
S1130A1083848688898A888885837F7B78757475C2
S1130A2076797A7C7E7F838588888A86847E7B7BC0
S1130A3078737B75817B807F8183878B8884827DBB
S1130A407C797979797A7B7C7E7D7F7F7F7F8180D9
S1130A508486888A94968393687F6D6A75718C6B9B
S1130A609173838670917A896D845F7366767A8ACE
S1130A70889584877A737A7484828F8B8E888A7936
S1130A807E787A80838886837E75786E76767A7FA0
S1130A90837F7D897C6B94659E5CA16E7B8C7D6A73
S1130AA0956E8089738F7B867F837E837D8084842B
S1130AB08B86807C7673706D74818C9692877B6D47
S1130AC06A6A7A848F928B7E756D7078878E938D27
S1130AD081746C6D76848D938C8377707078818B40
S1130AE08D8A817973757983888A858279797A7D0B
S1130AF08282817D7B7B7F85878680787372798211
S1130B00898B8A7F7A7072707F899084857A6E7BF4
S1130B107589898F85837375747B85888B848076CA
S1130B20797880838584807C7A7B7D8282827E7CD6
S1130B307D7F8485847D7975777D858988827B76C0
S1130B40747B818887867C7773787D868888817CAE
S1130B507A7B808285817F7B7D7B808082807E7DA5
S1130B607D7F8080807E7F8081807E7B7B7A808891
S1130B708B85817772747884898E88807472707999
S1130B80818D8D8D8078707177828A8E898177725C
S1130B90717881888A86847D7B7A77787B7C818072
S1130BA07C8177B571A668836A8572937A9D7A8E03
S1130BB0707D6B7C788E88947E806B726E7C7D8D6C
S1130BC0898B80787674757A7F83817C708B6AA92F
S1130BD0689D677E667E7B947E8F747D6E77858745
S1130BE08F8A7D7B6B72727E84868B7E787C787F25
S1130BF0828B8C8B7C7869716E7C8198A1BB7C9193
S1130C00516E5E7D83A095977F7E6A737788838F0C
S1130C10807B6D647F68A67BA5747C616C799792F8
S1130C20A1888C6B755D6D5D919E8FA4696F4B6718
S1130C306D909AAA9A8D7C726A67776F71567594D3
S1130C4078B170875C6863878BA99CA580765C66A5
S1130C50546F57C78FB69F80775F616A848EB0A345
S1130C60A37D75604D5146BC96CEB59588585955AF
S1130C707287B1A6BC8D835A434540B688DDAEA7C2
S1130C80845D554E7082ACB6C297855A3C3839B2F1
S1130C908AE9B4AD85574C456780B2B8C495855090
S1130CA0382E37AF92ECBCB285594A446A82B7B346
S1130CB0C793834D322730A1A9D7D8A3904A4A3C81
S1130CC07182B8B2C2937D4A332B4582B9B3E195A0
S1130CD095464C3D7287BFB5BA876F34322E897AF8
S1130CE0E4B6D38D804946537699B4BBA27F4F3284
S1130CF01E4B66C4B2E29F994E55416D7EAEADAEB9
S1130D00886238284367B1B2E3A5A45F5B476A737E
S1130D10A59FAE836840335262B0AADDA79B665993
S1130D204F667F9BA49B835440337380C4C3C8AF76
S1130D308767505B688998A68A774834445BA2A881
S1130D40D4B0AC6D634B6073939D9B7E5A403A6EF6
S1130D5085BAC9C0AD8368565D6B8591978561512D
S1130D6037716DBFB3C9AA946F5D5D6B7F92918C2F
S1130D705F5236706FC2B0CCA5946E645F75808F7D
S1130D80897E5F493A7A79C4BBC8A9866C5E62766B
S1130D908B97987C593739728FC1D8C1A6825C5A17
S1130DA05A808D9D8A714D2D4A62A6B3CFAF92733E
S1130DB057606B8A959C805D3A38797CC9C5C6A416
S1130DC07C60576580969D8E6A4925406AA5C1C49A
S1130DD0B0856E4E5F71959A96805230347B96CC76
S1130DE0CFBC97775C5B708C99977E593634729739
S1130DF0CACCBA9A715D5E708F9B9A7F5A323772F1
S1130E0094C8CFB79A725B6275909B98794F2D36D0
S1130E107D9BCCCDB0966B5B677F969C917044298B
S1130E204175A5C3C6A181645B6F889DA0846334AA
S1130E302A5886B6C9B79775575C7A8FA29D7B529C
S1130E40293280A5C9D4A8896C54658D97A2905F76
S1130E50382B578EB4C3BA91705D5B7A979F9B759C
S1130E6046243B77A7C0C7A0806B5D73989C9C8B7E
S1130E70572B387C9FC4D2AB85725A638998948F60
S1130E806134356B93B3C9B38A71645D7B98958A79
S1130E90723E2D6391A6C1BE8F706D676F91998666
S1130EA06A4F336091A9B1B99A73696D7388988850
S1130EB06848426094ABB4B29A75696D79848F8541
S1130EC06745477597ABB4B094746B7177848B8026
S1130ED06244497EA0A6B0AD8F7675757A84887811
S1130EE05B3F4A7F9EA3AFAE8C7273797A848A7615
S1130EF0554259849BA0AAA58671737A787E836E25
S1130F004F4D7996A1A1A5977E6F767D7D7F7E68F2
S1130F10454D7F9C9EA5AF997A727B7C7C827D5ED9
S1130F204050829C99A3AC9376737C7A7A807557EF
S1130F304A6A8A99969FA38E73757C78777F7253D9
S1130F404F799C9C9BA69F8272797F7C7B7D6A49AA
S1130F504F819C999EAC9D7C757F7E797F7B60469A
S1130F6055819693A0AB967C77807B7A817A5F4C8F
S1130F7066859292A1A58F797A7E797A8177595282
S1130F806D8A8C95A6A0887C7E79757F8472555570
S1130F9075858D9FAA9D8A837F777A83826F5B583C
S1130FA07389919BA89D8B837D7879807F715C5632
S1130FB070848B9CA89F8F857B767A7F7C73615528
S1130FC06C7B8590A59E938D80767E7F7C7869521C
S1130FD0576F7787A2A5999484767D7C777A6E5330
S1130FE053727783A1A6A0A08F7D807F777E7A60DD
S1130FF053666B7592999AA4968183817982806EE7
S11310005955636C7E97A1A5A69587837B7E8078CE
S11310106854525D657E929CA7A08F897F7C807DF9
S1131020766652575C68828EA0AB9D95877B7E7EE8
S1131030807B675654596A7E92A1A69F98868381C5
S11310407E81786D53535763788B9FA6A59B8A83C3
S11310507E7B827D7864586061768699A8AAA09781
S1131060877D7D7B7C7B6F5D565C64758899A3ACC2
S11310709F94887C7D7E7C7A6F5C565C64748895D2
S1131080A1A99C968A7E807F7D7D7261585E5D7386
S1131090808FA2A9A1A38C86827C817C706957521F
S11310A055686A8990A0A9A098918185807F7C74F5
S11310B0635B59576C72879AA0A8A197908282802B
S11310C0807B77655C5557686A888F9FA79D998E4A
S11310D082827E7C7E786D6656645F717E859F9D7C
S11310E0A79E908D817E807C7D796D665864666E46
S11310F08585A09FA29D8D8C7F7E7F7B7F796F6984
S11311005A66637081829E9AA49C8D8E8081807BB6
S1131110837A776A5F5F5C6D6D86909AA797998CE6
S113112083857A817C7E7C6F6D5C6B5C737B829D36
S113113096A59890907E827C7D807F7A71695B6CA5
S11311405B7775839B95A794928F81867A7F7E7E49
S11311507B7468605C5A706D8D919EA294998A88A4
S1131160847D7E7E7E7D786E685C6962787C889DF5
S113117098A894908A81817E7B817E7D746E645D63
S11311806A5F7E798B9D97A4918F8A8481837D8405
S11311907F7E76716660655C7D6F91959BA18D8F76
S11311A0858387828085817E7C726A655B756D7EAE
S11311B08A85A290968B828987828A7C877F7878B9
S11311C07169665B7676868E8D978F8E827F848B2F
S11311D0868E838380767B716E685F7066857B9173
S11311E08E958D897B8A868E8B858B7E80737A70B3
S11311F072615E7C708D8688938B898282888E8AE8
S11312008F81877B7B777876726A5E816E908F8C14
S1131210928D84867C878C87917F877C7F7D827A80
S113122077605B6A5F8A769689908386768E8198EA
S1131230878E7E8279817A84776F5A51717C9499F2
S113124093878675857D8F8F8E88827B827A87824D
S1131250817B6755536385859D8A838270818391E1
S1131260968C868077827C87857D766251566784EA
S11312708C98897D7F718782968F8C817E7A848019
S113128088867A735D54586E87919388777F7289C4
S113129087949085827B7F8285868779745F535596
S11312A0768799928B777D76898C919381857681E7
S11312B0828589847D7362535A7E8BA0928B797A5E
S11312C07E87918F9280807C7C89838B82807363FC
S11312D059577D80988D868073858192918B897909
S11312E08179888788887E79695F52627589938855
S11312F089747F7D8A948A907E817C818B848E7DA3
S11313007C6C60565B82879F8F8A7A778183958C09
S11313108F837C80798B838B847C76645E54737733
S11313209390888675827F8990898E7D817C7F8663
S113133083897B7A6C6258607D87968F8D817F81EB
S1131340808E8A8F8680827C8681857F7B746760AD
S11313505B7478918E8C8B7F857F868B878B828262
S11313607F808180827D7970675C6173818D8D90CF
S11313708987848188878A878384808280807F7A32
S1131380756C6362717883868A8D8A8A8584868582
S113139085848484848382817E79736A65676B71B2
S11313A079808B908F8C8B8A8B8A888886858380C2
S11313B07E7B76716A6463676D77808B9495939076
S11313C08E8C8A87868481807D7B7976726D666354
S11313D0686D767F8A949695928F8C8A87868481AD
S11313E07F7D7B7875726D6663676C757E8B95986F
S11313F09794908D8A878583807E7C7A7774716CCC
S11314006663676D76808C979A9895908D8A8785A8
S113141083807E7C7976726F696462676E78838F6D
S1131420999B9995908C898684827F7D7A78747152
S11314306D68636369707A86929A9C99958F8C899A
S11314408683817E7C7976736F6C6662636A737E51
S113145089959C9C98948F8B888583807D7B7875F7
S1131460716D696461666E78828E999D9C98938E85
S1131470898683817E7C7976726E6A67626268721D
S11314807C88939C9E9B96918D8885827F7C7A77BD
S113149074706C686361666D77828F999E9D999470
S11314A0908A8683807D7B7875716E696461656BD3
S11314B0747F8B979D9E9A96908C8783807D7B7892
S11314C075726E6B66626369717C88949C9F9C974D
S11314D0928D88847F7E7B7976726F6C6863636893
S11314E0717B87939C9F9D98928D87837F7D7B7969
S11314F076736F6B67656569717B86919B9E9D9919
S1131500938E88837F7D7A7875726F6B6865676C5C
S1131510737C87919A9D9C98938D86827D7A797845
S1131520746F726D6C6B6F747A838C939797948FCE
S11315308A86817C7A797877777677767676777803
S1131540797C7F8487878887878586858482817B69
S11315507C7B7E7E7D7B7B7A7C7A7B7B79777D7ED0
S1131560868282888683867C867C7E8A8F8080764B
S1131570787D7B7D7F797E7C7B7D82848283827E85
S1131580807D7D817B847F7A7A847D8283837F7969
S113159086878A7D7C7D7C7D7F787D848178767E5C
S11315A07E7D817C818184837E817B837E837A7747
S11315B07879787E7A797E7D817D7E7B7E7F7B8063
S11315C07C7F7C81767A7894857A7D828285887E18
S11315D07881817E787D8B7E86898A7B7975868108
S11315E083847D826C837F8480848E85828A827FDB
S11315F072806E7C8F91837D896E7A778F817C7106
S11316007A837E80777A837C837C868C7B837A85DD
S11316107F7C8063797F777E7D896D7E836E74762F
S1131620718F7E7E8483938B876B8584836D8086A4
S1131630887D80727E7E7C7A7B8679716F7C8097D0
S1131640978B8680706D6884729F908E76807E7F83
S11316507F7A85747D7A837E7D7C837C8A89887B8E
S113166081718B8D7E867A7D7D877A768D767C7C82
S11316707185777582828C9D906E7B6498748F7867
S1131680797E827E6E7F7B788D717E8A7E8E7E7F70
S1131690717F74858C767D7F80847D7E78797F7C74
S11316A0817F82827B7B8480827B78857582798549
S11316B07E877B857A8180808180817882817B812D
S11316C07C7F87817D7E807D827A80818382828215
S11316D07E827E7E7D7E807D807C7C807F7E827F1C
S11316E08380817B837D807F7C7F83817E7E7F7FFF
S11316F0837B7F7F7F807F7F7E7F80807F837F81EE
S11317007C7F7F7D7F7F807F7E7F7F7F80807F7FE8
S11317107F7F7F7F7F7F7F7F7F7F7F7F7F7F7F7FD5
S11317207F7F7F7F7F7F7F7F7F7F7F7F7F7F7F7FC5
S11317307F7F7F7F7F7F7F7F7F7F7F7F7F7F7F7FB5
S11317407F7F7F7F7F7F7F7F7F7F7F7F7F7F7F7FA5
S11317507F7F7F7F7F7F7F7F7F7F7F7F7F7F7F7F95
S11317607F7F7F7F7F7F7F7F7F7F7F7F7F7F7F7F85
S11317707F7F7F7F7F7F7F7F7F7F7F7F7F7F7F7F75
S11317807F7F7F7F7F7F7F7F7F7F7F7F7F7F7F7F65
S11317907F7F7F7F7F7F7F7F7F7F7F7F7F7F7F7F55
S11317A07F7F7F7F7F7F7F7F7F7F7F7F7F7F7F7F45
S11317B07F7F7F7F7F7F7F7F7F7F7F7F7F7F7F7F35
S11317C07F7F7F7F7F7F7F7F7F7F7F7F7F7F7F7F25
S11317D0807E7F7F7F7E7F7F7E7F7E7F7F7E807F18
S11317E07F7F7E807E807F807E807F7E7E807F8004
S11317F07F7F807F81807F7E7B936F7C8F6C838DE6
S113180071857977867A8C73897C8F75827A867EE6
S1131810838C827B75737C7B857F86797C7C7A7EE6
S11318207C7D827D817E7C7F7F7F8181817F7E7FC5
S1131830827A7D807C7E827D858584848481818793
S113184081847F7C7A7A72706F717980879597949E
S1131850908B80797C7E8185817B70655D5F6785F7
S11318608EA2A9A096826F6B6B7587939C998A77D9
S1131870634F4F525F8690B2A7A58E7768666779EB
S11318808D98A39B8E786A4F574F626D969AB5A632
S11318909B8476686A7282939BA2948977675C5A68
S11318A0595C6D8D8AB09799887A6C736F84909522
S11318B09C98877D6D6665686266638A8E9EA39C2C
S11318C08C837072728091989699857972676A6731
S11318D0645F64849497A9948A7D6C747D849999D7
S11318E0988A87757870766D6A56607D7F9DA89812
S11318F08F7B6A75738794949A897E7D75797D76DA
S1131900705E555771949BAA9484736D76848D97F9
S1131910918E807D797E7C80726953577174A7950E
S11319209E857770757B90939389827B7981827E83
S1131930826E624E4D7D81A7A394827A6F838794D1
S1131940938E857D807B8B8481806D5A544C7E92EE
S11319509CA48879797389909492857D78807F8B13
S11319608C827C6E5553527F9797A08278797D8CB8
S1131970978F927D7D7A7F828B8982796D5A5354B9
S11319807B8D989A847D7E808F9A8E917D7E7B82DA
S1131990808C8480776E5D56577B92959B877C7F85
S11319A0838C928E89827A7D808186867D7D726029
S11319B05B5281879796868081808F8E918B807C05
S11319C07E7E8288837D7E6F635A577578968F8773
S11319D0837E828D8F908A837F80818484827D7CC4
S11319E0706A5E5E6376908A908182808E8B948624
S11319F08A7B807F838683817B766E6757607C8653
S1131A009591878282878F8F8A86827C7F81858465
S1131A10817D7C736A605E727493858F8188868E03
S1131A208B8F8684807E7F8283847E7B7871665DE3
S1131A305F7E859290868483878E8D8C897E7F7C61
S1131A408481827F7D7A746F626362748D879085EE
S1131A508587898B9287887F807E828181817B7D47
S1131A60726D6262707490848F8385878A8A8F888E
S1131A7086827D80818480847C7A746C62647C79C3
S1131A80918589848486898B8C8983807D808082FA
S1131A9080817A7B726A625F7D7D918B8684838686
S1131AA08A8E8A8A83808081828380817D7875682A
S1131AB06562797690888785838A8B8B8C8884820B
S1131AC07F81818181817E79736C68656F748B8479
S1131AD089848587878C8D8B85837F7D7D7E7F81BF
S1131AE07F7D77716865647983878E838783868930
S1131AF08C8D86837F7D7F7E817F817F7A726D640A
S1131B0067797E8B8887838486888A8C8785817EA3
S1131B107D807F80847E7D77716A66677682838C20
S1131B2085878585898C8A89827E7E7D7E83808176
S1131B30827A766E65666E748A848C8585878588DC
S1131B408B8A86847D7E7E7E808183807C746D66B4
S1131B50627C798D8A85888187878A8A8884827D58
S1131B607F7F808281827E7B756B6663787D8A8DC0
S1131B7083898088858A8B8984817D7E7F80818129
S1131B80817D7C766B6961797C898B848A7F86828E
S1131B908C888984807E7E7F7E8280847D7D736E46
S1131BA068657A768E888B858486868A898A848419
S1131BB07D817C7F807F837D7E75746B686C71868C
S1131BC08390848A8487868A8988837E7E7C7E7ECD
S1131BD07F81807D77756C696877828790858A813B
S1131BE088858C898881807B7D7D7D807F807C7ADF
S1131BF0746E6A687A7790858F83858685898988EB
S1131C0086817E7F7B7E7C817F7F7D77766A6A6733
S1131C107985889186898086858B8788807E797C82
S1131C207C7F8181807B7A73716C6D79798E838FEF
S1131C3080898288888B87867D7E7A7D7F80827F7B
S1131C407E7B75756A6C6A81818C8B8584838688BA
S1131C508A8A84817C7C7E808082827F7C79747293
S1131C606B6C6E7989888D84868086888B89847F65
S1131C707A7C7E8182837E81777B706D6B6C837CC2
S1131C8091838B7F89828A878B838779807B80810C
S1131C907F847E807977746D6B6C7E848E85877C7F
S1131CA085818A888B84827D7C7F7E8281837F7E0E
S1131CB07978736F6B6F7C858887837E828188894E
S1131CC088847E7E7B8180828280827C7C76716E39
S1131CD0697E788F8389817F85818A8789847D7EE7
S1131CE07D818182837F807A7B76736C6B807D8E2D
S1131CF08385817E85818A8688837F7E7E828182B8
S1131D00807F7F7B7A74726A747A83878882838007
S1131D108286868887837F7F7D80818080807D7DA9
S1131D207C78747074777B7F8485878785838384CC
S1131D3083838181807F7E7F7F80807F7D7B7673BC
S1131D40747374797F84878A898987878584838378
S1131D50817F7E7D7D7C7B797874707273767B82E3
S1131D60888A8C8C898787858382817F7D7C7C7C33
S1131D707B7B797875727475797E84888A8B8A877F
S1131D808685838282807F7E7D7C7C7B7A79777472
S1131D90727576798085898B8B8887858583828225
S1131DA0807F7E7D7D7D7C7B7976727274767A818C
S1131DB085898A8B888686858382827F7E7D7D7CE9
S1131DC07C7B797774727475797E84888B8C8A872E
S1131DD08686838282817F7E7D7C7B7B797673712C
S1131DE07374787F84888B8C8A88878684828280C7
S1131DF07E7D7D7B7B797875727173757981858A37
S1131E008C8D8A8988868382817F7E7D7C7A7A78AC
S1131E107673707274777D84888C8E8C8A898784BB
S1131E208382807E7D7C7A79787673717173767C17
S1131E3083878B8E8D8B8988858382807E7D7C7A57
S1131E4079777572707173767C83888C8E8D8B89AB
S1131E5088858382807E7D7B7978767471707274D4
S1131E60797F858A8D8F8C8B8A878483817E7D7C24
S1131E707977767471707274777D84888C8F8D8B8A
S1131E808A888583817F7D7C7A7776757371737494
S1131E90777C82878B8E8E8C8A888583817E7D7CFD
S1131EA079767573707073747980858A8E8F8D8C52
S1131EB08A8683827F7C7A787573727173787A7D6F
S1131EC08285878A8B89888784838281807E7B79D7
S1131ED07875727073787D8185878A8B8B8B898501
S1131EE083807D7E7A737574716F7280868688852F
S1131EF08489898787827D807F7D7E7975767574F4
S1131F00767A818384868386898687858081807DAD
S1131F107E7B7677767575778083838684858987DB
S1131F2087868180807D7C7977777775757C7F82E1
S1131F30858484888887878380807D7D7B77787893
S1131F4077777A7E80828382848586858481807F88
S1131F507C7C7B797A7A797C7E7E8181818483839F
S1131F60838282817F7E7D7C7C7B7B7C7D7E7F7E89
S1131F707F818181828181817F7F7F7E7E7D7D7E65
S1131F807D7E7E7E7F7F8080808080807F7F7F7F5C
S1131F907F7E7F7F7F7F7F7F7F7F7F807F7F7F7F4D
S1131FA07F7F7F7E7F7F7F7F7F7F7F7F7F7F7F7F3E
S1131FB07F7F7F7F7F7F7F7F7F7F7F7F7F7F7F7F2D
S1131FC07F7F7F7F7F7F7F7F7F7F7F7F7F7F7F7F1D
S1131FD07F7F7F7F010188130000881300000108C0
S1131FE0BE1100007F7F7F7F7F7F7F7F7F7F7F7F2A
S1131FF07F7F7F7F7F7F7F7F7F7F7F7F7F7F7F7FED
S11320007F7F7F7F7F7F7F7F7F7F7F7F7F7F7F7FDC
S11320107F7F7F7F7F7F7F7F7F7F7F7F7F7F7F7FCC
S11320207F7F7F7F7F7F7F7F7F7F7F7F7F7F7F7FBC
S11320307F7F7F7F7F7F7F7F7F7F7F7F7F7F7F7FAC
S11320407F7F7F7F7F7F7F7F7F7F7F7F7F7F7F7F9C
S11320507F7F7F7F7F7F7F7F7F7F7F7F7F7F7F7F8C
S11320607F7F7F7F7F7F7F7F7F7F7F7F7F7F7F7F7C
S11320707F7F7F7F7F7F7F7F7F7F7F7F7F7F7F7F6C
S11320807F7F7F7F7F7F7F7F7F7F7F7F7F7F7F7F5C
S11320907F7F7F7F7F7F7F7F7F7F7F7F7F7F7F7F4C
S11320A07F7F7F7F7F7F7F7F7F7F7F7F7F7F7F7F3C
S11320B07F7F7F7F7F7F7F7F7F7F7F7F7F7F7F7F2C
S11320C07F7F7F7F7F7F7F7F7F7F7F7F7F7F7F7F1C
S11320D07F7F7F7F7F7F7F7F7F7F7F7F7F7F7F7F0C
S11320E07F7F7F7F7F7F7F7F7F7F7F7F7F7F7F7FFC
S11320F07F7F7F7F7F7F7F7F7F7F7F7F7F7F7F7FEC
S11321007F7F7F7F7F7F7F7F7F7F7F7F7F7F7F7FDB
S11321107F7F7F7F7F7F7F7F7F7F7F7F7F7F7F7FCB
S11321207F7F7F7F7F7F7F7F7F7F7F7F7F7F7F7FBB
S11321307F7F7F7F7F7F7F7F7F7F7F7F7F7F7F7FAB
S11321407F7F7F7F7F7F7F7F7F7F7F7F7F7F7F7F9B
S11321507F7F7F7F7F7F7F7F7F7F7F7F7F7F7F7F8B
S11321607F7F7F7F7F7F7F7F7F7F7F7F7F7F7F7F7B
S11321707F7F7F7F7F7F7F7F7F7F7F7F7F7F7F7F6B
S11321807F7F7F7F7F7F7F7F7F7F7F7F7F7F7F7F5B
S11321907F7F7F7F7F7F7F7F7F7F7F7F7F7F7F7F4B
S11321A07F7F7F7F7F7F7F7F7F7F7F7F7F7F7F7F3B
S11321B07F7F7F7F7F7F7F7F7F7F7F7F7F7F7F7F2B
S11321C07F7F7F7F7F7F7F7F7F7F7F7F7F7F7F7F1B
S11321D07F7F7F7F7F7F7F7F7F7F7F7F7F7F7F7F0B
S11321E07F7F7F7F7F7F7F7E7F7F7F7F7F7F7F7FFC
S11321F07F80807F7F7F7E7F7F7F7F7E7E7F7F80EB
S113220081807F7F7E7D7E7F7F7E7C7C7E808385D8
S113221082807F7F8080807E7B797B7E81858983BD
S1132220807F828A88827C77767C7F7F7E7D7D7EBC
S113223080858A86817C74727C7F7D7569717B82DE
S113224083807D7E808182807F7E7C797B7E818796
S11322508E86807E818A8A837B75767D7F7F7E7E73
S11322607F7F7F818483807D776F757D81807A769F
S11322707B848E91847F7F8081807F7F7D7B7C7E49
S113228081868D89827C7B7E83827A6F68767E7F6D
S11322907D7B7E7F7F7E7F80807E7973767C838961
S11322A088807E828E9B8E827E7F82817F7F8082E9
S11322B0807F80848987827B716D7A7F7E75666E6C
S11322C07B82827D7C7E807E7B7B7E7F7D78797C39
S11322D0838E988B817F838F8E8579737780807EC0
S11322E07D7F83817D7D8182817B6F636E7B827F35
S11322F076737A879595837F808589807E828685AB
S1132300817F828E9E9385787581878377605674EA
S11323107E7E7669757F7C766F747D7E716067766C
S11323208B97897A7B88A7B993827E8BA291817FD0
S1132330899D94837D859B9C8A71595C7E837554A9
S1132340365E7981735B677A82775B6678858166AE
S1132350627390B0B4857C8AB0D0A9877B8AA19B34
S1132360867B84A19B8877778F9D8B6C463873809E
S1132370754A2B4C7584785F5F7785835E627589B7
S11323808E75647393BDD1927F8AB4DBBA897885E4
S1132390A5A189777B9C9D8A756B899A8C693B2959
S11323A06C7F714C0F457487735856758880605CD8
S11323B0748B8C6E5F6F96C6C194798EC0F8B38AA5
S11323C07D8DBEA7897885A9A58A7679A0A891670D
S11323D047447E886C3116477A805C3D547782701E
S11323E0465975847647466B94AF956C7098C8EAE5
S11323F09D8188A7CEA184819CBAA2847F9DD3C3EA
S11324008F6D738FB091653E3C7485734E446B81C0
S1132410785A4A6B8077490E4A7183732C416A94C7
S1132420A8926D748EA4A27C798A9C9F787791BCC3
S1132430DEA48287B2F0C48E73819DAA8A727180F1
S1132440968775778BA28E6D475578896D34134DB9
S1132450797F5F42577883745B657A81693F4970FD
S11324608D956B5C6E96BCC48B7B8AA9B794808473
S113247096A98B7D88B3C7B1867C9ACDC0906C69D0
S1132480789889726568868377727A928A704B46E7
S113249070837141184C77826D515C77857F6D6BC9
S11324A07A81754A59718B95725F6F93BBBA8F7C31
S11324B088A4B09580819199877D89A4CDA18580D8
S11324C09BD1B68F726B87948875676E81837A759A
S11324D0869788705D537E8570482259797F6D4F49
S11324E06378838071757D7C674C5777877E5B55F5
S11324F07191A7A27E7A889BA58A7F81878475784B
S113250089A2AB8D7D88AED3AF887A839F99867874
S113251077828581808DAF9B87787A939A8C6F546C
S113252051758179665C727D7E7B7D858375644F90
S1132530707F7A603A57758786747079858B837D4E
S11325407E7F78666878868B8073788A9FAC8F816B
S1132550808A9689817E7E807E7E828B9E8E827E1C
S1132560818E8D8479706D7D807D79787C7F7F7E8E
S1132570857F807D79797B7F7E7B787A7E7F7F7B88
S11325807C7F7F7E837F807F7C857C7F7F7C7E7C5D
S11325907E807F7F7D808180837F807F7E767F7E4B
S11325A0817B84817E7F82877C817E8A7E7F7E821E
S11325B07F76807D80827D767E80827E807F7F7E36
S11325C0767D7F7E7E7E777F7F7E787F7F7E7C8533
S11325D0887C7C83837D7D7E7F7C807F7E8072800F
S11325E07E7C8A717F808080778180807E797F7E07
S11325F07D8185807E7E798A827B7E85857C807ED6
S11326007E87847D7C7F807F7E7E7F8083808079CF
S113261084827E7E837D847F7C8771807E7E877CBE
S11326207D7F7E83908482817A85787F7E7F898195
S11326307D7E78867E7D7F758A7D7B7E7891817DA7
S11326407E7B8A8480827D77878280817C7A7E808B
S11326508089807D7E7F807E807F7C877B7D7D7E80
S113266088807F807F80847E7F85837D80817F7E5C
S1132670827F7D7D857D7F7F81827D8281866D7D68
S1132680817F8878727E807E74807E81877F7E7F62
S11326907E7D7E867D7D7987817E7B807A7F807F4B
S11326A07D7D7C7E7F7E767B7F7E778B827E807D48
S11326B088827E8078887C7C7B857C807F807E7C21
S11326C08581818773858081817F827F7F80797F07
S11326D07E7E7B8A7B7E7C84787F807F7A8B7E7C07
S11326E07B84867D807E85757F7E7D84837B7E7EF4
S11326F07F807C7D7E7A8085807E817B7C828282E5
S11327007989808080837A7E7E877D7B80808275D4
S11327107F80808581797F808479827F8083747CC7
S11327207E7E8184797F7E847A787F7F778C847CB7
S11327307F76878480817D74807F7D847C7D8080AA
S11327407F7C857E807B827F7E7E8080807F807898
S113275080867E807E82757D7D8577867F7E788487
S1132760827D7C7C7B787E7D7F747E7F7F7D7E7E98
S11327707F7D7F867D7E83837989808280878B7F3E
S11327807D7E817E7E7E85787B817F8979847E7D56
S1132790827E7B7E7B7F7A7A7F7F857B8A7F7E7C4D
S11327A081827F7F767D858082817F847E80807D2B
S11327B082817F7E8A857F81817C8280827F838102
S11327C07E7D8079797E7F8685857F807C867C7F0F
S11327D07E87787B7E817981817F818776777C7F14
S11327E08584817F7F84777E7E7F8371747F807E02
S11327F07E7E7E7E8173807F7D7C7D7B7F7F7C750A
S1132800848080837A7C807F8481767F7F748A7CD5
S113281082827A807081836E88738082788B787FDD
S1132820807C857B817F7B817B807E7E7D7F7F7EBC
S11328307A847E81807C7D857F7C7F837F7F7F7EA1
S113284078887F7D7F8B827F7D7D798280807D808B
S1132850847F7E7C817D7F7F7F84847E7F7D848274
S11328607E7D7D88817E7E7D81807F7F7E84807F6A
S11328707F7E84817E7F817D7F7F808281817E8057
S113288083817D7E80817D7D7E8080807E7E81834C
S1132890857F7F7E7B7B7D807E7670767D80807D6C
S11328A07E7F8084928B857772818D86766C6C7F37
S11328B0827C7B838A837976848F8874584A818466
S11328C0745A6479817A767481827A6E6F7E8179A2
S11328D06A586578826E5B647A80817C7F7F7F7DB5
S11328E078757C8283756F79889EA86F7A89987EC3
S11328F0817E8077817D7E818F8D847E8491A7996E
S1132900888099AB9E80817F87777E7F807A8C8256
S11329107C7B948D8576604C9885756A937F7F7FE8
S1132920907B7B7E806A6F7980796F506878855759
S1132930616D7D78888785838383877978827F70CA
S11329406B7B8897A67A7684917976837D6F758A76
S1132950807F9AA6847E858D9E978876ADA294808A
S1132960887A6A737A7A73788E897C859993837866
S11329705C46A4857776B0807B85976C6F7D7C57A9
S113298068868377705E5D76735F5B76887E91A0E0
S1132990947B86866D557C7B6C58747A8BA54F5AD4
S11329A07982626F94857789A2857B8E8D6B6C7931
S11329B08493BCA3738A8F896080766A5F8F857FD6
S11329C092C28979869597918977B4A18F7D8A6E11
S11329D0516B7D776E86978880969E948376568E0B
S11329E0AB837A979D6578867C517A8373669595D7
S11329F084787446608C776E7A9D7C88979C6C7A18
S1132A007F683D798578645F6A747A5067758679E2
S1132A1098A7957F8888795B777C664F627A8B7FED
S1132A2029707C7862A098867B9A9981778D7C5DE9
S1132A306174869E854E7B82694A9285766FA28EEA
S1132A408187A3886F768E9CB06D72868855688363
S1132A50785C6791837B9CB5867A8CAAB895728ED4
S1132A60907E5B7E7966447E83797AB5938086B066
S1132A70C1A37C93A09B6A767F704368817A6A972E
S1132A80998380ABCDA98590AAAD7B75837A4F5D80
S1132A907E7B667B94847DA0CBAB888CADBB897632
S1132AA085835F5D7C7E68718A837B99C2AC8989EA
S1132AB0A8C38F78858A6B627B816D7184817C96D3
S1132AC0B9AA8A87A5C2957A848C776A7B8375763E
S1132AD082807D94B5A68A849EBC9C7D828B837102
S1132AE07C837E7B847F7E90B09F8A8097B4A28013
S1132AF07F858E797E8287808880808BAF9D897C5C
S1132B0092A8A3847D7C8E81807F86848A827F863E
S1132B10A89D8876849B9B8878707987827B787B54
S1132B2083837B7C8A8F837A777C7E807D786E74C6
S1132B307D8182807D7E8081807F7F7F7D79787CAE
S1132B40828889807E82899088807E7E807F7F7F54
S1132B507F7D7B7D828B9288807F838B88827C764D
S1132B6072797E807F7B7A7D81878D88827C7A7D75
S1132B7082817B7369737C82837F7C7D81868A8674
S1132B80817C75727A7F7E766C727C838788817F84
S1132B9080858A86817C7670777D807E77777C835A
S1132BA08A8C84807F7F8181807D7769727B848732
S1132BB082787B859092847F807F7F7C7D80807605
S1132BC0727A889496837C8599A78E8180878D8478
S1132BD07E828F93857E8495AF9E857C88A49A8817
S1132BE077747E8B837B7A8D8D847A7B888E8577D0
S1132BF0614F737F7A6455667B817A6A737D7F74D3
S1132C00636F7C80766B6B79889FA0847B889FB58B
S1132C10918182919B8C7F8395A48D81828C9D90E0
S1132C208476626979837761496F7E7C6D61757F93
S1132C307A675B6F7E7C7165737C8497AC898085D1
S1132C4098B598847F8C9F91818093A996837E897F
S1132C50958C827D765F64798477606176878872EB
S1132C606C798581646577868773707A83868184BD
S1132C7083755C647C847458506F8179635B798359
S1132C80765B52738179686376807E82959D8978BC
S1132C90769C9D8A736B8791877778939C897573EB
S1132CA08A948679798789818196B7A7857C96B538
S1132CB0A9887986A199847E8FB19E867C88A29406
S1132CC0837E8797877E859EBDA082809EB5A385DF
S1132CD07D8C9B90808193A996837E8A9B8F817F34
S1132CE08991857E8498B09C857D88AA97877A7A15
S1132CF08B86827F82998E847C7A8A89837D7B8885
S1132D0084817F86999386766A7887857769667ADF
S1132D107F7E7B7C81817B706D7A807C726F797F12
S1132D207E7A7D81827A6854677B7F6E5E65798462
S1132D3084807B7D807B70707B838075737C8283D1
S1132D407E7A7D807D7170798898977F7B8699A142
S1132D508F817E8186837F818B93877F80888E8716
S1132D60807F8185827F818B9C94857878868D8510
S1132D70786C6A767E7F7A7C81817C767880817DAE
S1132D8076737B7F7E7C7A80817B6F606B7A827CBA
S1132D906B6E79858E91847F8082807B7D82848234
S1132DA07D7E81868A827F8082827C7D838E9A90DA
S1132DB0837D83938F8479716E7A7F7E7C7E82811A
S1132DC07D7A7D81807D78777C7F7E7C7E82817C2C
S1132DD072666F7B827E70717A848D92867F808228
S1132DE07F7C7D8183827E7E818688827F808282D1
S1132DF07E7E828A958D837B7A8389837A6F6875D8
S1132E007D7F7C7B7F807D7A797E7F7E79747A7EFC
S1132E107F7C7A7D7F7D776D727B848B877D7C83DD
S1132E208E978C827D7E82807F808487827F7F8361
S1132E308986817E7F82817F7F838A89837A706B92
S1132E407A807C7268717B8386827E7F7F7C787BCC
S1132E507E7F7E78797D81827F7D7E807F7B797C99
S1132E60838C958A817F86908C837A73727C7F7F32
S1132E70808383807E7E8183817D79797F7F7E7D5F
S1132E807F82817C746B737C817F76767C838C9269
S1132E9087807F7F7E7D7E8081817E7E8185898221
S1132EA07F7F81827F7E81868E89827C797C82810C
S1132EB07C736C757D81818080807E7B7A7E7F7E51
S1132EC07A757A7E807F7C7E7F7E7A74777C828836
S1132ED08A817F81878F89827C78797D7F7F8284D4
S1132EE0827F7F808483807D7C7D7F7F7F808384DD
S1132EF0817C7671787E7F7C76777C82888C8480F6
S1132F007E7D7C7C7E80807F7D7E808385817F7FCB
S1132F107F7E7C7E81868C87817D7D8183817C76AA
S1132F2071787D81828381807E7D7D7F7F7E7C79C7
S1132F307C7E80808180807E7A75797D81858580A4
S1132F407F80868C87817C79787C7E808183817F79
S1132F507F818382807E7C7B7D7E80828684817D6E
S1132F6079777C7F7E7B76797D82868883807E7D7F
S1132F707B7D7F7F7E7C7D7E80828481807E7C7968
S1132F807B7E81848682807F818484817D78757A4A
S1132F907E80828381807F7E7F807F7E7C7A7C7E40
S1132FA080818382807E7B787B7E8081807E7E8030
S1132FB0848885807D7B7A7D7F808182807F7F800D
S1132FC08281807E7C7B7D7E80838583807E7C7B0A
S1132FD07E7F7E7C797B7E81848683807E7D7C7D02
S1132FE07F7F7F7E7E7F80818281807E7C797B7EF5
S1132FF0808384817F7F808181807E7B797B7E80DA
S11330008283817F7F7E7E7F7F7F7E7D7D7E8082C7
S11330108482807E7B797C7E7F807E7E7F808285B9
S113302082807E7C7B7D7F7F8080807F7F808080AC
S11330307F7E7D7B7C7E80828481807F7E7E7F7F9D
S11330407F7E7C7D7E80828481807E7E7E7F7F7F8A
S113305080807F7F7F818281807E7C7A7D7E80817B
S113306081807F7F7F80807F7E7D7B7D7E8081816C
S1133070807F7F7E7E7E7F7F7F7E7E7F8081838157
S1133080807E7D7C7E7F7F7F7F7E7F7F8081817F4E
S11330907F7E7D7E7F7F8080807F7F7F7F7F7F7F3D
S11330A07E7D7E7F808182807F7F7E7E7F7F7F7E2C
S11330B07E7E7F7F80807F7F7F7E7E7F7F7F80801C
S11330C07F7F7F7F7F7F7F7F7E7E7E7F7F80807F0D
S11330D07F7F7F7F7F7F7F7F7E7F7F7F8080807FFA
S11330E07F7E7E7E7F7F7F807F7F7F7F7F7F7F7FEE
S11330F07F7E7E7F7F8080807F7F7F7E7F7F7F7FDC
S1133100807F7F7F7F7F7F7F7F7F7F7F7F7F7F7FCA
S11331107F7F7F7F7F7F7F7F7F7F7F7F7F7F7F7FBB
S11331207F7F7F7F7F7F7F7F7F7F7F7F7F7F7F7FAB
S11331307F7F7F7F7F7F7F7F7F7F7F7F7F7F7F7F9B
S11331407F7F7F7F7F7F7F7F7F7F7F7F7F7F7F7F8B
S11331507F7F7F7F7F7F7F7F7F7F7F7F7F7F7F7F7B
S11331607F7F7F7F7F7F7F7F7F7F7F7F7F7F7F7F6B
S11331707F7F7F7F7F7F7F7F7F7F7F7F7F7F7F7F5B
S11331807F7F7F7F7F7F7F7F7F7F7F7F7F7F7F7F4B
S11331907F7F7F7F7F7F7F7F7F7F7F7F7F7F7F7F3B
S11331A07F7F7F01018813000088130000010887D6
S11331B00E00007F7F7F7F7F7F7F7F7F7F7F7F7F8A
S11331C07F7F7F7F7F7F7F7F7F7F7F7F7F7F7F7F0B
S11331D07F7F7F7F7F7F7F7F7F7F7F7F7F7F7F7FFB
S11331E07F7F7F7F7F7F7F7F7F7F7F7F7F7F7F7FEB
S11331F07F7F7F7F7F7F7F7F7F7F7F7F7F7F7F7FDB
S11332007F7F7F7F7F7F7F7F7F7F7F7F7F7F7F7FCA
S11332107F7F7F7F7F7F7F7F7F7F7F7F7F7F7F7FBA
S11332207F7F7F7F7F7F7F7F7F7F7F7F7F7F7F7FAA
S11332307F7F7F7F7F7F7F7F7F7F7F7F7F7F7F7F9A
S11332407F7F7F7F7F7F7F7F7F7F7F7F7F7F7F7F8A
S11332507F7F7F7F7F7F7F7F7F7F7F7F7F7F7F7F7A
S11332607F7F7F7F7F7F7F7F7F7F7F7F7F7F7F7F6A
S11332707F7F7F7F7F7F7F7F7F7F7F7F7F7F7F7F5A
S11332807F7F7F7F7F7F7F7F7F7F7F7F7F7F7F7F4A
S11332907F7F7F7F7F7F7F7F7F7F7F7F7F7F7F7F3A
S11332A07F7F7F7F7F7F7F7F7F7F7F7F7F7F7F7F2A
S11332B07F7F7F7F7F7F7F7F7F7F7F7F7F7F7F7F1A
S11332C07F7F7F7F7F7F7F7F7F7F7F7F7F7F7F7F0A
S11332D07F7F7F7F7F7F7F7F7F7F7F7F7F7F7F7FFA
S11332E07F7F7F7F7F7F7F7F7F7F7F7F7F7F7F7FEA
S11332F07F7F7F7F7F7F7F7F7F7F7F7F7F7F7F7FDA
S11333007F7F7F7F7F7F7F7F7F7F7F7F7F7F7F7FC9
S11333107F7F7F7F7F7F7F7F7F7F7F7F7F7F7F7FB9
S11333207F7F7F7F7F7F7F7F7F7F7F7F7F7F7F7FA9
S11333307F7F7F7F7F7F7F7F7F7F7F7F7F7F7F7F99
S11333407F7F7F7F7F7F7F7F7F7F7F7F7F7F7F7F89
S11333507F7F7F7F7F7F7F7F7F7F7F7F7F7F7F7F79
S11333607F7F7F7F7F7F7F7F7F7F7F7F7F7F7F7F69
S11333707F7F7F7F7F7F7F7F7F7F7F7F7F7F7F7F59
S11333807F7F7F7F7F7F7F7F7F7F7F7F7F7F7F7F49
S11333907F7F7F7F7F7F7F7F7F7F7F7F7F7F7F7F39
S11333A07F7F7F7F7F7F7F7F7F7F7F7F7F7F808027
S11333B080807F7F7F7F7F80807F7E7C7F7F7F7F19
S11333C07F858D867D827F7F7F7F7F8583818081DE
S11333D07F7F7F7F7F82A2997D787F7F7F7F7F81C0
S11333E07C7A828D7F7F7F7F7F71686160807F7F41
S11333F07F7F7F737F9292847F7F7F7F7F7E726FD8
S11334006B607F7F7F7F7F857E7F7A7F7F7F7F7FFB
S11334107F858A87796B7F7F7F7F7FA8B594787358
S11334207F7F7F7F7F7778878F8D7F7F7F7F7F59B7
S1133430639BBAA27F7F7F7F7F998E7A73837F7F1E
S11334407F7F7F5950505CA37F7F7F7F7F7C8BA0E1
S1133450907A7F7F7F7F7F6B56504E4C7F7F7F7F3C
S11334607F79857D90A47F7F7F7F7F8D7C644E46AE
S11334707F7F7F7F7F7F6E7F7D817F7F7F7F7F8D5B
S11334808F856B4F7F7F7F7F7FE3956A747D7F7F1E
S11334907F7F7F758F9582697F7F7F7F7FE0DB955C
S11334A0676F7F7F7F7F7F737C938F7A7F7F7F7F40
S11334B07FB1EAC586657F7F7F7F7F8F7981918623
S11334C07F7F7F7F7F96E9E79F6B7F7F7F7F7FA2F0
S11334D07F8291887F7F7F7F7F91E9EDA7737F7FD4
S11334E07F7F7FA385868F817F7F7F7F7FAEF9DF9C
S11334F0976E7F7F7F7F7F9B898A8B6E7F7F7F7FA5
S11335007FE3F9BD816E7F7F7F7F7F908C8F744EC8
S11335107F7F7F7F7FFCCD9676637F7F7F7F7F93E6
S1133520917A49247F7F7F7F7FD89C7E67597F7FF4
S11335307F7F7F94784D1F167F7F7F7F7FA985696A
S113354055647F7F7F7F7F7840160E237F7F7F7F48
S11335507F805A4F6E8F7F7F7F7F7F2C090848A121
S11335607F7F7F7F7F5355789A9F7F7F7F7F7F0206
S11335702679D1EF7F7F7F7F7F668698A8AA7F7F99
S11335807F7F7F5ABDE8EBD17F7F7F7F7F8FA1ADA7
S1133590A3747F7F7F7F7FD9E9DBB47E7F7F7F7FCA
S11335A07FADAC81390C7F7F7F7F7FE4BD83504D3D
S11335B07F7F7F7F7F803C1220527F7F7F7F7F854C
S11335C057525B667F7F7F7F7F1C3B6A93B37F7F0D
S11335D07F7F7F575A648AA97F7F7F7F7F7C91B7E3
S11335E0D9CB7F7F7F7F7F709A9D78527F7F7F7F4B
S11335F07FC4C6AE8C747F7F7F7F7F8266575C6C8E
S11336007F7F7F7F7F987F6C59577F7F7F7F7F6627
S11336107173778F7F7F7F7F7F6D59607B867F7F1C
S11336207F7F7F71819BA8A37F7F7F7F7F74817F52
S113363078747F7F7F7F7F949B958E8C7F7F7F7F45
S11336407F80777778747F7F7F7F7F8C8F8E81797F
S11336507F7F7F7F7F7F767275767F7F7F7F7F839B
S1133660858582827F7F7F7F7F7A7877777A7F7F75
S11336707F7F7F83838485847F7F7F7F7F7A797A4E
S11336807C7E7F7F7F7F7F82848382817F7F7F7F39
S11336907F7B7C7D7E7E7F7F7F7F7F828181807F39
S11336A07F7F7F7F7F7D7E7E7F7F7F7F7F7F7F8128
S11336B0807F7E7D7F7F7F7F7F7E7E7F7F807F7F19
S11336C07F7F7F7F7E7E7D7D7F7F7F7F7F7F7F800B
S11336D080807F7F7F7F7F7E7E7E7E7E7F7F7F7FF9
S11336E07F80808080807F7F7F7F7F7F7F7F7F7FE1
S11336F07F7F7F7F7F808080807F7F7F7F7F7F7FD2
S11337007F7F7F7F7F7F7F7F7F808080807F7F7FC1
S11337107F7F7F7E7F7F7F7F7F7F7F7F7F7F7F7FB6
S11337207F7F7F7F7F7F7F7F7E7E7E7F7F7F7F7FA8
S11337307F7E7E7E7E7F7F7F7F7F7F7F7F7F7F7F99
S11337407F7F7F7F7F7F7F7F7F7F7F7F7F7F7F7F85
S11337507F7F7F7F7F7F7F7F7F7F7F7F7F7F7F7F75
S11337607F7F7F7F7F7F807F7F7F7F7F7F7F7F7E65
S11337707F7F7F7F7F7F7F7F7E80807F7F7F7F7F54
S1133780807F8080807F7F7F7F7F7F7F807E807F40
S11337907F7F7F7F7F80837D7D7F7F7F7F7F817C35
S11337A0817E7E7F7F7F7F7F807C827C7C7F7F7F2A
S11337B07F7F7F7E807E7D7F7F7F7F7F7D7E7C7B22
S11337C07D7F7F7F7F7F807D7A807B7F7F7F7F7F10
S11337D0808180837C7F7F7F7F7F7E848281817FE5
S11337E07F7F7F7F80817C807F7F7F7F7F7F8081E1
S11337F07D7C807F7F7F7F7F7E7B7C807F7F7F7FE0
S11338007F7F7F7C7F7C817F7F7F7F7F7C7F7B7FCF
S1133810837F7F7F7F7F7F7C787F7C7F7F7F7F7FBD
S11338207C7B7F797E7F7F7F7F7F7E7E817D7E7FB5
S11338307F7F7F7F7E7F7E7E807F7F7F7F7F798398
S1133840847D817F7F7F7F7F8083837F817F7F7F74
S11338507F7F7F827D7E7E7F7F7F7F7F82807C7F74
S11338607E7F7F7F7F7F8580807F7D7F7F7F7F7F5F
S11338707F7E817B7D7F7F7F7F7F7F7E7A807C7F61
S11338807F7F7F7F7F7D7F7C7C7F7F7F7F7F7D7E4F
S1133890807D7E7F7F7F7F7F7E7E7E7E7C7F7F7F3D
S11338A07F7F807D7F7F7F7F7F7F7F7F807F827F21
S11338B0807F7F7F7F7F817B837E837F7F7F7F7F0E
S11338C07F7B837F827F7F7F7F7F817D7D7D7E7F06
S11338D07F7F7F7F83808481837F7F7F7F7F827FE1
S11338E0817B7C7F7F7F7F7F797C7D80837F7F7FEF
S11338F07F7F8B8A8B89877F7F7F7F7F6D6C686BEF
S1133900697F7F7F7F7F919491918E7F7F7F7F7F7F
S113391087817970677F7F7F7F7F737E98929D7F99
S11339207F7F7F7F8484898C927F7F7F7F7F6361A9
S11339306060707F7F7F7F7F908A82837E7F7F7FBE
S11339407F7F8A7D6B67637F7F7F7F7F88AAA0A349
S11339508F7F7F7F7F7F829095988E7F7F7F7F7F11
S11339606C62564E767F7F7F7F7F82736B787C7F1D
S11339707F7F7F7F84787278777F7F7F7F7F588790
S1133980A8BBAD7F7F7F7F7F778F929F957F7F7F5F
S11339907F7F80827C6F5B7F7F7F7F7FC0B19271EE
S11339A0637F7F7F7F7FA698877A707F7F7F7F7F0B
S11339B0765D453A417F7F7F7F7F7765545F7B7F6C
S11339C07F7F7F7F7A696D71887F7F7F7F7F3D37BF
S11339D0449BA97F7F7F7F7F4F637B95A77F7F7FFA
S11339E07F7F68748A95957F7F7F7F7F428E9DD984
S11339F0AC7F7F7F7F7F7F8CADA6A47F7F7F7F7F1F
S1133A008794968A717F7F7F7F7FA9B8CBA58D7FAE
S1133A107F7F7F7FA7A1A9907F7F7F7F7F7F968D08
S1133A207D66557F7F7F7F7FCCADA977687F7F7F61
S1133A307F7F9DA08C7B6D7F7F7F7F7F88746150AB
S1133A404C7F7F7F7F7FA0A76D6D5C7F7F7F7F7FB3
S1133A509D8B766E6F7F7F7F7F7F775D534B4D7F2E
S1133A607F7F7F7FA3796F626A7F7F7F7F7F8C797F
S1133A707171767F7F7F7F7F6253504E547F7F7F4B
S1133A807F7F897069657E7F7F7F7F7F807172759C
S1133A908A7F7F7F7F7F58535255657F7F7F7F7FEB
S1133AA073706479817F7F7F7F7F77727780907F67
S1133AB07F7F7F7F56535659917F7F7F7F7F746DC1
S1133AC06E838A7F7F7F7F7F7274778A8B7F7F7F0D
S1133AD07F7F57535A649F7F7F7F7F7F7369798489
S1133AE0967F7F7F7F7F72797F928E7F7F7F7F7FBC
S1133AF057585D81987F7F7F7F7F726985859C7F22
S1133B007F7F7F7F727D87918D7F7F7F7F7F5659F7
S1133B1063959A7F7F7F7F7F6D74868E9A7F7F7F88
S1133B207F7F737B898C887F7F7F7F7F55545E92F4
S1133B30967F7F7F7F7F6D76878A977F7F7F7F7F6A
S1133B40767B878A8B7F7F7F7F7F57565980997FCB
S1133B507F7F7F7F707488889A7F7F7F7F7F77786D
S1133B6085898D7F7F7F7F7F5B5B5972997F7F7FA4
S1133B707F7F766D88849A7F7F7F7F7F757880864C
S1133B808B7F7F7F7F7F5D5D5C5F987F7F7F7F7FA3
S1133B907A6E7E82927F7F7F7F7F72757B878A7F3A
S1133BA07F7F7F7F5C5C5C5C7E7F7F7F7F7F7A74BE
S1133BB07286877F7F7F7F7F76767786877F7F7F1A
S1133BC07F7F625D5F5D677F7F7F7F7F7B7C6C81B2
S1133BD07F7F7F7F7F7F7D74767A877F7F7F7F7F04
S1133BE0635E605C5B7F7F7F7F7F8C7D766F817F90
S1133BF07F7F7F7F88777571807F7F7F7F7F69611B
S1133C005F5D5D7F7F7F7F7FA17F8272767F7F7F15
S1133C107F7F8D817774757F7F7F7F7F7066625E23
S1133C205F7F7F7F7F7F939D7D816F7F7F7F7F7F9E
S1133C30938E7C77727F7F7F7F7F7C7065615F7FEF
S1133C407F7F7F7FAA939A81817F7F7F7F7F9991F6
S1133C508E7D787F7F7F7F7F847B7468647F7F7FA6
S1133C607F7F8BAB94A1837F7F7F7F7F8C999091A3
S1133C70817F7F7F7F7F87857C746A7F7F7F7F7F63
S1133C80878CA7959E7F7F7F7F7F88889790937F7F
S1133C907F7F7F7F8284857D777F7F7F7F7F648541
S1133CA08AA5937F7F7F7F7F7C8788938F7F7F7FA9
S1133CB07F7F787F82837D7F7F7F7F7F6165818641
S1133CC0A07F7F7F7F7F7E7B8586917F7F7F7F7FC5
S1133CD076787E80827F7F7F7F7F6360697E897F45
S1133CE07F7F7F7F7E7F7C83867F7F7F7F7F7879E6
S1133CF0777D7E7F7F7F7F7F6365606B7E7F7F7F45
S1133D007F7F8A817E7D817F7F7F7F7F84797976C3
S1133D107B7F7F7F7F7F69656365707F7F7F7F7F28
S1133D209084807D7E7F7F7F7F7F887E7A75787F99
S1133D307F7F7F7F6E6768646B7F7F7F7F7F928CDE
S1133D4084817E7F7F7F7F7F8B867C79767F7F7F78
S1133D507F7F6F6C67676A7F7F7F7F7F928E8783A9
S1133D60827F7F7F7F7F8C87807A787F7F7F7F7F52
S1133D706F6E6B6C6D7F7F7F7F7F93928A86827F6D
S1133D807F7F7F7F8B89807C767F7F7F7F7F716E53
S1133D906D70707F7F7F7F7F91908B8A857F7F7F1F
S1133DA07F7F8A88837E777F7F7F7F7F6F7070724B
S1133DB0737F7F7F7F7F8E8E898A857F7F7F7F7FE2
S1133DC08886817D777F7F7F7F7F73747576787F28
S1133DD07F7F7F7F898B8A8A897F7F7F7F7F8583AF
S1133DE07F7D797F7F7F7F7F74747677797F7F7F14
S1133DF07F7F87868887877F7F7F7F7F85817F7DA1
S1133E007A7F7F7F7F7F757678787A7F7F7F7F7FE9
S1133E1085858785857F7F7F7F7F828380807D7F87
S1133E207F7F7F7F7878797A7B7F7F7F7F7F8282B5
S1133E308483857F7F7F7F7F818280807E7F7F7F79
S1133E407F7F7B7B7B7B7C7F7F7F7F7F8181828188
S1133E50827F7F7F7F7F81818181807F7F7F7F7F62
S1133E607D7C7C7B7C7F7F7F7F7F7F808080807F69
S1133E707F7F7F7F80818181817F7F7F7F7F7E7E47
S1133E807D7D7D7F7F7F7F7F7E7F7F7F807F7F7F44
S1133E907F7F80808080807F7F7F7F7F7F7F7F7E2A
S1133EA07E7F7F7F7F7F7F7F7F7F7F7F7F7F7F7F1F
S1133EB0808080807F7F7F7F7F7F7F7F7F7F7F7F0A
S1133EC07F7F7F7F7F7F7F7F7F7F7F7F7F7F7F7FFE
S1133ED07F7F7F7F7F7F7F7F7F7F7F7F7F7F7F7FEE
S1133EE07F7F7F7F7F7F7F7F7F7F7F7F7F7F7F7FDE
S1133EF07F7F7F7F7F7F7F7F7F7F7F7F7F7F7F7FCE
S1133F007F7F7F7F7F7F7F7F7F7F7F7F7F7F7F7FBD
S1133F107F7F7F7F7F7F7F7F7F7F7F7F7F7F7F7FAD
S1133F207F7F7F7F7F7F7F7F7F7F7F7F7F7F7F7F9D
S1133F307F7F7F7F7F7F7F7F7F7F7F7F7F7F7F7F8D
S1133F407F7F7F7F7F7F7F7F7F7F7F7F7F7F7F7F7D
S1133F507F7F7F7F7F7F7F7F7F7F7F7F7F7F7F7F6D
S1133F607F7F7F7F7F7F7F7F7F7F7F7F7F7F7F7F5D
S1133F707F7F7F7F7F7F7F7F7F7F7F7F7F7F7F7F4D
S1133F807F7F7F7F7F7F7F7F7F7F7F7F7F7F7F7F3D
S1133F907F7F7F7F7F7F7F7F7F7F7F7F7F7F7F7F2D
S1133FA07F7F7F7F7F7F7F7F7F7F7F7F7F7F7F7F1D
S1133FB07F7F7F7F7F7F7F7F7F7F7F7F7F7F7F7F0D
S1133FC07F7F7F7F7F7F7F7F7F7F7F7F7F7F7F7FFD
S1133FD07F7F7F7F7F7F7F7F7F7F7F7F7F7F7F7FED
S1133FE07F7F7F7F7F7F7F7F7F7F7F7F7F7F7F7FDD
S1133FF07F7F7F7F7F7F7F7F7F7F7F7F7F7F7F7FCD
S11340007F7F7F7F7F7F7F7F7F7F7F7F7F7F7F7FBC
S11340107F7F7F7F7F7F7F7F7F7F7F7F7F7F7F7FAC
S11340207F7F7F7F7F7F7F7F7F7F7F7F7F7F7F7F9C
S11340307F7F7F7F7F7F7F7F7F7F7F01018813006A
S113404000881300000108191100007F7F7F7F7F23
S11340507F7F7F7F7F7F7F7F7F7F7F7F7F7F7F7F6C
S11340607F7F7F7F7F7F7F7F7F7F7F7F7F7F7F7F5C
S11340707F7F7F7F7F7F7F7F7F7F7F7F7F7F7F7F4C
S11340807F7F7F7F7F7F7F7F7F7F7F7F7F7F7F7F3C
S11340907F7F7F7F7F7F7F7F7F7F7F7F7F7F7F7F2C
S11340A07F7F7F7F7F7F7F7F7F7F7F7F7F7F7F7F1C
S11340B07F7F7F7F7F7F7F7F7F7F7F7F7F7F7F7F0C
S11340C07F7F7F7F7F7F7F7F7F7F7F7F7F7F7F7FFC
S11340D07F7F7F7F7F7F7F7F7F7F7F7F7F7F7F7FEC
S11340E07F7F7F7F7F7F7F7F7F7F7F7F7F7F7F7FDC
S11340F07F7F7F7F7F7F7F7F7F7F7F7F7F7F7F7FCC
S11341007F7F7F7F7F7F7F7F7F7F7F7F7F7F7F7FBB
S11341107F7F7F7F7F7F7F7F7F7F7F7F7F7F7F7FAB
S11341207F7F7F7F7F7F7F7F7F7F7F7F7F7F7F7F9B
S11341307F7F7F7F7F7F7F7F7F7F7F7F7F7F7F7F8B
S11341407F7F7F7F7F7F7F7F7F7F7F7F7F7F7F7F7B
S11341507F7F7F7F7F7F7F7F7F7F7F7F7F7F7F7F6B
S11341607F7F7F7F7F7F7F7F7F7F7F7F7F7F7F7F5B
S11341707F7F7F7F7F7F7F7F7F7F7F7F7F7F7F7F4B
S11341807F7F7F7F7F7F7F7F7F7F7F7F7F7F7F7F3B
S11341907F7F7F7F7F7F7F7F7F7F7F7F7F7F7F7F2B
S11341A07F7F7F7F7F7F7F7F7F7F7F7F7F7F7F7F1B
S11341B07F7F7F7F7F7F7F7F7F7F7F7F7F7F7F7F0B
S11341C07F7F7F7F7F7F7F7F7F7F7F7F7F7F7F7FFB
S11341D07F7F7F7F7F7F7F7F7F7F7F7F7F7F7F7FEB
S11341E07F7F7F7F7F7F7F7F7F7F7F7F7F7F7F7FDB
S11341F07F7F7F7F7F7F7F7F7F7F7F7F7F7F7F7FCB
S11342007F7F7F7F7F7F7F7F7F7F7F7F7F7F7F7FBA
S11342107F7F7F7F7F7F7F7F7F7F7F7F7E7F7F7FAB
S113422080807F7F7F7F7F7F7F7F7F7F7F7F7F7F98
S11342307F7F7F7F7F7E807F7F7D81807F7F7F7F89
S11342407D7F807F7F7E7F7F7F807E7F7F7F7F7E7D
S11342507F7F80807E807E7E7D7E7F7F8081807F69
S11342607F7F807F7F7F7F7F7E7F7F8080807F7F57
S11342707E7E7F7F7F8081817F7E7D7D7F7F807F4B
S11342808081807F7F7D7D7F7F7E807F7F7F7E7D3D
S11342907E7F7F7E7E7F7F80807E807F7F7E7C7E30
S11342A07F80828080807F7D7B7D7F808082817F14
S11342B07F7D7D7E7F807F80817F7F7F7E7F7F7F0C
S11342C07F7D7E7F7F7F807F807F807D7C7F8080FD
S11342D07D817F7F7D7D7E7F7F7E7F7F807F7C7EF3
S11342E07E7F7F7F817F7F7E7A7C7E7F807D7E7FE5
S11342F07F7F7D7D7E7F7F7F7C7E7F7F7F7C7E7FD7
S11343007F807C7F7F7F80818080807E7E7D7E7FBA
S113431080827F7F7F7D7D7D7F7F7F7F7D807E7DAF
S11343207D7F7F80817D817F7F7E7A7C807F81809D
S113433080807F7F8280807F8080817F7F82808079
S11343407F7F7F7F7F807F808283807F7E82807F6C
S11343507F8085827F7F807E7D7F7F7F827F807F5D
S11343607F807E7E80837F7F7F7F80807D7F7F7F55
S1134370847D7F7F807F7E7E807F827E807F817F41
S11343807F7F7F7F807F7F7E7D847C7F807F7E7F39
S11343907F7F817E817F7F807E7E807F7F7F7F7F26
S11343A07F7D7D7E7F7F7E7F7E7F7F7D7C7E7E7F27
S11343B07C837E807F8081807F807F827E7F7F7D03
S11343C0807D7F80818581807F7D857F807E7B7CF1
S11343D07E7E80837E817E8087898A817D7C7F81C9
S11343E0817D7471757D82868B85808085958F85AE
S11343F077696B7A817A6A5D6C7B83878A86817D33
S11344007F848E85755D40697C7C684D6178858983
S1134410897F807D7471818476573557767E6D41AE
S11344205A75888B82797E7F7466747F785E314A90
S113443076866D48527389907F787C807D5D6F7B32
S11344407B62364A7088784A4F738B8E80757C8184
S11344507969687B806C41506F8C8F535C718A9949
S1134460877B7B81846F6F79837C5D58729299908E
S11344705B7590999F7D7D83857F757A868B7C6A39
S1134480748FB9AF88748BB4A5907D829086817B3C
S1134490859894807A8BAFDCA98289A3D495848192
S11344A08897827F848EAE8881859AC9B18E7E8DED
S11344B0CCA4877A7E9086818187A092837C86A112
S11344C0A48B6C6967A9866E716788817B838391ED
S11344D0827677728F866F4D208182705A4E747FF8
S11344E07D7C768581786C637680785633487A85CE
S11344F04F54517B847A7A76817E6B69697D816CB5
S1134500575371937B77527689898B787F8176773D
S11345106C7B868481687491B9B8887389AA9D89F3
S11345207F81857F7B7B859598817B8AADDEB57E97
S113453080B6ABA0827C8580857C80949C958180AC
S11345409BC2B28F7181BEA18A797977857E7F8B78
S113455093948479818FA78A6A4583868E7760775E
S11345607581807C968884796D6B86866F491A592B
S113457081725C4E6E7F82778D7E847A6963707FF0
S1134580795233456F796E266B7881897A86807B80
S11345906D6A6C7B8273494F6F967F6A4F788595FD
S11345A07B8A7E7D7662727A84897A607293C2BBDA
S11345B06C748C8AA17D837F7B66737B8590977DE9
S11345C07891B7E9A87789A8958F807D787F6C7DED
S11345D0849491927E86B3D6BB8D8A9BC290817B54
S11345E07F6E7E7A8588A08A847D95C9B38F6AA1FF
S11345F0B3A085806E7F787D8296898E837A74A23B
S1134600A88D6944A7A18875806F7C7E8389A58560
S11346108278776C908C6C3B1C9A89746480767F6A
S11346207F8C9195817C696D78846C441052897378
S11346305956837C7F80A088847B7859737F774325
S1134640193B7A6F60447181837B81968379757499
S11346506C7C7E5E1D406C7D48505E7C7C867A85D9
S113466086796F6D72797F6C3C3C6C8D5B336079BD
S11346707F7E847C85777569757C84794C486B96DC
S1134680762F5B7583777F7B81776E68737C8581FA
S1134690544C6B988836587486767A7E7F77686C2B
S11346A0717C83865F506C999B4758738A7B7680B4
S11346B07E7A666D717B838869536D99A9575773A8
S11346C08D8576817E7C686D727A83886B546D9853
S11346D0AF6557728F907B807D7E6E6B737A848614
S11346E06A526C98AB6B59719097827E7D7F746D22
S11346F0737A848466536D97A6745E72909C8F82DD
S11347007E7F7B78777B8484675A7094A38A6F75E5
S11347108EA2A88F817E80867F7D82826F64729054
S1134720A39F7C788BA5BB9C857A7C8885817D78CA
S11347306460728EA09876778BA8C1A0867A8090E8
S11347408B827C735B5C738C9A8A71778BA9C1A111
S1134750857B83938C827C6F5459738B93806D76A5
S11347608CA9C09F857D85928B827B6C515A748AFB
S11347708F7B6C778CA8BD9D847D85918A827B6BB1
S1134780515B75898E7C6E778BA8BE9D847D8591E7
S11347908B827A6B525D76888D7D6F788BA6BD9DFA
S11347A0847D83908A827A6A535F76888E81737956
S11347B08AA5BD9E857C818E8B837A6B57637787B0
S11347C08F86777A89A2BA9E857B7E8A8A837A6D60
S11347D05B667788928E7C7B879FB89F8679798485
S11347E088827A6E606978889596827C869CB49F6C
S11347F08778757D85827B71646C7888979D887EC7
S11348008395AD9D87766E7480817C72696F7A879B
S113481097A28E81808CA29987756665797F7D7455
S113482069727B8594A291837C8090928676645A87
S1134830717D7F7971767C838E9C92847A757A857A
S11348408378675A6D7C81807B7B7E81868B8882AE
S11348507B7470797E7E786E747C828688837F7F99
S1134860808281807E7B787B7E8081817F7F808255
S11348708482807E7E7D7E7F7F7F7D7D7E8082833D
S1134880817F7F7F81807F7F7F7F7F7F7F7F807F2E
S11348907F7F808181807E7D7E7F7F7F7D7B7B7D2E
S11348A081807B7B7E80807F7E7F7F7F7C7E7E801D
S11348B07F7F7D7E808182817F80838180807F81F4
S11348C080807F7F7F797D7F7F83807F7F7F7F7EF6
S11348D0837F8079827F7E7F7C857C7E7E7F7A82E7
S11348E08181828183807F8075797E7F7D847F80D2
S11348F07F81768480807D7D7F7F7D817B787F7FD3
S1134900837E857F808284857F7F7B7D777F8078AF
S1134910917E7E8088848280817E80858081828071
S11349207D7E7F82767B828086687B8181897081AF
S1134930807E86756F7F7F858A7F7E818272848088
S1134940817E7E807F827697827E7E7E7B857F7F5E
S11349507D7A7B7E7F827F7F7F7E7589777E7F8372
S113496079837F7F8176837F827C84847E7C7D8350
S11349707B7E7E7E7D7C7E807786807F8085777D52
S1134980807F7F887B7D81877586828183817D7F1F
S1134990807791797E7E86747C7E7D857E7C7F7C2B
S11349A0867979817E7E84807E7F837C8480808406
S11349B07E797F7F7986807F7C7D86767F7C866D1D
S11349C07F7F807D817E7E7F85827D7F7E837886EA
S11349D07E7C81807F7E7E7B847181808D6E8581EB
S11349E0807A857B7E7F8774787D7C8A72798081EA
S11349F07E877281817E86807E8084728682817EBB
S1134A006F8282837B857E817E8283817F7E817EAD
S1134A10837E7C8088847F80817F85808179807F8C
S1134A207D7E75827B7E7C7E84788282876E89809F
S1134A30827C83817E7D8467787F818872847C7C9C
S1134A4082798181817D8E797E7E7682817E7C856C
S1134A507C7D7E808275837E7C7B87847F80798366
S1134A60807D7E9177848180847A82807D79897A41
S1134A70808187747F7F7F8294827E7E7D8288811D
S1134A808081847A7F7E8077808080808085828127
S1134A908181857E7E8A7889807C7B7D7E7E807C18
S1134AA07E7D807F797B7E81817E7E7A81807A8E15
S1134AB07581846D997383876BA4678385749773F9
S1134AC080817D8977818371987582827E827981E4
S1134AD0807D867E8082718C7581817687728280EA
S1134AE07A87807E7F798770817E7C83827E7F7FD8
S1134AF0837F7F7E7E807D807E7D7E817D7D8381C0
S1134B007A7F7E81817D80807D767E7F7E7B7A82C6
S1134B107F7E837782807F817E7D7F7E7F7E7E80A5
S1134B207D7F81807E807E7F7F7E7F7F827D7F7F91
S1134B307D85837F7F7E7B817F7F7F7F7F7E7F7F7D
S1134B4082837E7F7F7E807F7E8280817F7F808262
S1134B507F7F7F7E847F7F7F807F7F7F7F7E807F5C
S1134B607F7F80817E7F808184807F7E7E807E7F48
S1134B707F7D79787C828A8E817E828E9B8E827EF6
S1134B807F83817F80868E85808086928D84786AFB
S1134B905B6D7F796858677B7F786D717D7E736507
S1134BA06E7D7E766F777F7D7A808784755E4B71AC
S1134BB0847361506D807A6F6C7B8277665D7580DB
S1134BC07A737781817C7B898D85755F5675857352
S1134BD0626076807A737C8383786A697B817B7474
S1134BE07C85817C7D8B8D847768596C7C7A5E575B
S1134BF0737D7F737082817B6F66777F7D746E7E39
S1134C00817C7A7E86837A6E646D79878D625E7923
S1134C1084897B737D7D756D717C807D77777D7EE6
S1134C2076727B7F7D736B737B859BAE8D788D9B5A
S1134C3095847E83846D6E7B848A837B7D81847D71
S1134C40767C817F74737C828A9795887685BEA8EA
S1134C50847E808D897E86939085808087888480F9
S1134C60808B90817D828A91888279614766827087
S1134C705769807F7D748595847D7E7A81827C7C72
S1134C807B81827B7C8989827C766E70788B9D8522
S1134C905F73877F7E7E7D80705B757F7F847C778A
S1134CA07D807E78757C80766E787D828D9B9788FA
S1134CB07684C0AC84807E75818083938E7B7F7C78
S1134CC07D8F887F80838D8B80828C8B84827B6FA9
S1134CD05A61787D56376D7F80847879817A7784BC
S1134CE07E7C81756A7C807D776E7A817A7677772F
S1134CF07B8491A99B8287ACAF837F7D7E8A837CF2
S1134D008484808681808D927E7D828488807D8368
S1134D10898887827A6C5769807455597D7F817F31
S1134D20717B817A777A797D7E726F81817D7C7ADD
S1134D307F817B7577797C8493A4937E8AA7A480F2
S1134D407F7D7C8B857D848A898480808C907D7C2A
S1134D508282817E7D828A8A84827A6A596C807496
S1134D60585A7D8081837476807A6F707D7F7E75DA
S1134D706D7D817B7A8084817C7673787D8392A338
S1134D80938087A7B2867E7E7B858A808293978272
S1134D907E81878F847E8389847B7D81878B8681D6
S1134DA07C7161697A7D5E436C7E7F8385797C7FCB
S1134DB0705E737F7C7774797F7D746F7D817C7680
S1134DC073797D8289938F847B89B3A1847E807B70
S1134DD07F817C7F9592827F899086807F858F8773
S1134DE08081899086817D766E727A8685655F770B
S1134DF0847F7E817F82877A6F7A827A6B757D7FEA
S1134E007B73767D7F786D757D81858C8A83796DE2
S1134E107B938876747F807F7E76748383797787AB
S1134E208B827E7F8585817D7F8989827C7B787872
S1134E307C849098807A899892807F7F828B847D0D
S1134E40848E8A7A7C82837F7C7D81837D787C8258
S1134E50848583817C7264707E796053737F7F7FE5
S1134E607D7A7E7E726678807B747680807D7979A7
S1134E707F807C76757C7E8189938D837D8AA89BD7
S1134E80847E81807E7F7E7E8A8B827F8994877FE9
S1134E90808587827F80858C86807E7A73757C840A
S1134EA08B827078878A817E7F7F81847D7C8384F6
S1134EB079757C817E797B7E7F7E78787D81828323
S1134EC084817B716979827867647A7F7F807B7B58
S1134ED07F7D74717F817C797D82807E7D7E8281FD
S1134EE07C79797D7E8188918A818090A490817E6D
S1134EF07D7C7F807F848D878081888C837F808286
S1134F00837F7E81858883807E7A73767C828171BB
S1134F106E7A838483817F7F807D7A7D807E7678BC
S1134F207D807F7C7D7F7F7C76797E808184848197
S1134F307C767782827A72737B7E80807E7F807DAE
S1134F407A7D82817D7C7C7F7F7F7F8383807D7C73
S1134F507C7D7E818689847F818B9488807E7C7B26
S1134F607D7E808486817F808386827F7F807E7D34
S1134F707E808487817F7E79747A7E7F7A71757C66
S1134F80818485817F7F7C797B7F7F7C787B7E8039
S1134F907F7D7F7F7E7A757A7E80818483807E7D2B
S1134FA07E82817C77767B7E80808181807E7F8219
S1134FB082807E7C7C7F7F7F828583807E7C7B7DFC
S1134FC07E808182807E81868B85807D7B7B7D7ED9
S1134FD08081817F7F808283817F7F7E7C7C7E80D5
S1134FE0828482807F7E7E7E7F7F7B777B7E8083D0
S1134FF08682807E7D7C7E7F7F7E7C7D7F7F8081BC
S113500081807E7C7A7C7E808182807F7F7E7F80AF
S1135010807E7B7A7C7E808182807F7F7E7E807FA3
S11350207F7F7D7E7F7F818382807E7C7A7C7E7F92
S113503080817F7F80818281807E7D7C7D7E808176
S113504081807F7F7F807F7F7F7E7D7E7F80818365
S113505081807E7E7E7E7F7F7F7D7D7F7F8082815B
S11350607F7E7E7D7E7F8080807F7F7F7E80807F4D
S11350707F7E7C7D7E808181807F7F7E7F807F7F3D
S11350807E7D7D7F7F8081807F7F7E7E7F7F7F7F2F
S11350907F7F7F7F8081807F7F7E7D7E7F7F7F801B
S11350A07F7F7F8081807F7F7E7F7F7F7F7F7F7F09
S11350B07F7F8080807F7F7F7E7F7F7F7F807F7FF9
S11350C07F7F7F7F7F7F7F7F7F7F7F7F80807F7FEA
S11350D07F7F7F7F7F7F7F7F7F7F7F807F7F7F7FDB
S11350E07F7F7F7F7F7F7F7F7F7F7F7F7F7F7F7FCC
S11350F07F7F7F7F7F7F7F7F7F7F7F7F7F7F7F7FBC
S11351007F7F7F7F7F7F7F7F7F7F7F7F7F7F7F7FAB
S11351107F7F7F7F7F7F7F7F7F7F7F7F7E7F7F7F9C
S11351207F7F7F7F7F7F7E7F7F7F7F7F7F7F7F7F8C
S11351307F7F7F7F7F7F7F7F7F7F7F7F7F7F7F7E7C
S11351407F7F7F7F807F7F7F7F7F7F7F7F7F7F7F6A
S11351507F7F7F7F7F7F7F7F7F7F7F7F7F7F7F7F5B
S11351607F7F7F7F7F010188130000881300000187
S113517008DB0600007F7F7F7F7F7F7F7F7F7F7FCD
S11351807F7F7F7F7F7F7F8080807F7F8182807F22
S1135190808182807F7F8183817F7F7E7E7F7F7E0F
S11351A07B7B7E807D7A7A7E807E7C7E80807E7E24
S11351B07D7F7F7E7A757A7F7D79747B7F7E7B7934
S11351C07D7F7E7C797A7D818077767B848575701E
S11351D07A837F73777D82878B817D87979B857D9B
S11351E0848E9189817D7E878C85787D9E9B867C4B
S11351F0899789807E776A778079717985827C7FC7
S1135200888881808B937C7A888F76757C80797F7F
S11352108C847A8396887F82857D7A7D82806C7186
S11352207C7B6250717F7871767A7D848D7D717B11
S1135230837A6B747D7F786E76807A7C8E97857E98
S11352408B9D877E827F6C717E7D777D86817D805C
S11352508B8B847C8BA48F7D8D9F95797A837E7DC7
S1135260838477788C8F82808790877F84948F74EF
S113527079846F425F7D77616C85827F91A0887DA0
S1135280858777747D7F745E6E7F745D75958C7190
S11352907D9D96808483646077806B566D7F7B767A
S11352A07B8982809BB5957996B4A2737586807646
S11352B0848871719EA3887C89998A7E83815B5CD2
S11352C077774A1E5983706274887E8DA5A573739F
S11352D08E92706F7C7D747C938B7189D2C68C8323
S11352E09EBD887C7D613C5F836B52558884797E4A
S11352F090847A92A6814D6995884C537C7D7CA3D9
S1135300B18882ACD29D7D869282727E7A533E7140
S11353108C5F39619B8B787F866E708F873945757A
S11353207E6A607B827D88BCA8848FC8F5A1789151
S11353309F8378836A5064A2906E75A59481838854
S1135340735F7389651633737859417A8084ACCE60
S11353509B7798B09C6B79847D707F856E6188B5EE
S1135360956A79B4AC827F7F534D767A4C2B6482F4
S1135370766D7A8780829AB1917599C7AF68758B7B
S113538088778C8A706BB0AD887C939C8C80808687
S1135390766D798157164E7B73525D7680849EA517
S11353A084788E987E707A8588796F7D7B6A719D0A
S11353B08E6E73B1A3877C8578707A836F566F7D08
S11353C0796B5F7081716A77978488A7C592788EAC
S11353D0A390737D7C6E62828579729794867886B9
S11353E0B3A28487978465728877425A7C7B6C74F5
S11353F091847B8B99867C899C997D7991A18D6D13
S11354007A7E6149798570678B92837F9092807EE2
S11354107F7159677B82725856758473617784787B
S11354207E9C9981839195827E81858E9186756912
S1135430717C83745948687F7A707386808185890A
S11354407B7C838A8C7E7E889DB19F847B829492B0
S11354508674685E77807A717E81817D817E807DAD
S113546084888578788EA9BA927F8592918B837689
S11354706A5B757F7A768687827F898B877C858F46
S113548083737690A8A8867D8383808884726661FE
S1135490727D808179817F81858F847E828B847601
S11354A0798BA0A795827F858B8C84756968747AC3
S11354B0888F7C787D7D767D8884787D8E877F87D4
S11354C096A49585787C898C807D735C697B8490B7
S11354D0AA9682818D858180765D5C7D847A8097B1
S11354E08D8278665576817D808672768E9C978DC6
S11354F08475748B93837E7E6A65797E6D6B8585F6
S1135500787A766F7789866F727D8498B298827F75
S11355107E74757C81807F807E828F9B8C827C767A
S1135520727B7E808894898081868A86827A726B77
S1135530787E80858E87817F808487827A757C7E61
S11355407E82878580807C797B83817E7F817D7E5E
S113555081838584817D8085837F7E7A747C807B52
S1135560757C85817F84837C7E7F79747D807E7F5A
S11355707F7B7C83847F7C7E7F7F7D7D7E81838136
S11355807D7F80828A88817D7C77787D8284848116
S11355907F81878B84807D79767C7E8185868280FD
S11355A07E7E8081807D7B7A7D7E81868984807DFC
S11355B07B7C807F7F8183807E80828484817B76F4
S11355C0767D7F7E7C797C7E8081817F7F7F807FFA
S11355D07F7F7F7F7F7F7F8081817F7F7F7E8081D0
S11355E0807D7A797B7E808180807F7F80807F7FD1
S11355F07E7B787B7E82868A86817D7B7A7D7F7FB7
S11356007E7B7B7E81858A85817C78757A7E8083AA
S113561084817F7F7F8282807D7977797D8285878F
S113562083807E7D7E7F7F7F7F7D7D7E808284827E
S1135630807E7C7C7D7E808181807F7F8184807F71
S113564080808181807E7E8080807E7B777B7E806F
S113565081807F7F7F7E7C7C7E808181807F7F8054
S113566081807F7E7C797B7E808386837F7F7E7D45
S11356707E7F808283817F80838784807D7A7A7E27
S11356807F7F7F7D7E7F7E7C7A7C7E80807D7C7E3A
S1135690808182807F7F7E7D7E7F808182807F7F0C
S11356A07F7E7D7E818386837F80838683807D7CED
S11356B07E7F7F7F7E7F82817C7773797E7F7C791A
S11356C07B7E8182807F7F7E7D7C7D7E80818180E8
S11356D07F7F7F7D7D7E8184867F7E8184868480BA
S11356E07F818482807E808886817B75747D807DC5
S11356F07975797E7F7B7A7D7F7F7D797A7D8181E3
S1135700817F7F7F7E7A7B7E8286817A7D82868C92
S1135710867F818386858080878F8A837A78808458
S1135720817B75767C7F7D7A7B7F807D7973787EC3
S11357307F7E7A7B7E7F7B77797D838377767D829C
S113574088887F7D82858A837E838C948E837D8006
S11357508787827B797C81807D7C8083817C777460
S11357607A7F7E7A787C7F7D7974777D8181787485
S11357707C8283817D7D8284807D7D848D948B82F7
S11357807E828887817C7C8181807E7F8887827B02
S113579076787F807D78747C7F7D79747B7F7F7D54
S11357A07B7D7E81837F7E7F8080807C7E81858BF4
S11357B086817D7A7A7E807D79797C7E7F7F7F8108
S11357C0807C77747A7F7F7D76797E807E7A7A7D1D
S11357D08182817D7E807F84837F7F7F80807F80C4
S11357E0828484817C79767C7F7F7C77797E8081DA
S11357F07F7F7F7F7C74767D807F7C7B7D828483CA
S11358007F7E818686817F808487827F8182818179
S11358107F7F828782807E7C7A7D7F808081807F8B
S11358207F818482807E7D7C7E7F81848884807F6A
S1135830838683807F7F81817F7E7E8182807D7C61
S11358407E82817C798084807D7A7D80807D7D7F6D
S113585080010188130000881300000108910700EB
S113586000808182807F7F7E7E7F7F7F80807F7FBC
S11358707F7F80807F7E7D7C7D7F808282817F7E32
S11358807D7D7E7F7F7F7F7E7F7F8081817F7E7C29
S11358907B7D7F808181807F7F7E7E7F7F7F7F8015
S11358A07F7F7F7F80807F7E7D7D7D7F8081838100
S11358B07F7E7D7C7E7F7F807F7F7F7F8080807FF7
S11358C07E7D7C7D7F808181807F7F7D7E807E7FE9
S11358D0827D817F807F807F807E7D7E7D7E7F83D1
S11358E08082807E7D7E7D7F7F7E7D807F7F8080C5
S11358F0827F7E7E7E7C7E818283817F7E7E7B7DB5
S11359007F807F7E827F7E8085807F7D7D7B7B7EA6
S113591080868585807D7C797C7E7F7D797E7E8195
S1135920858884817C77707B7D828586827F7F8079
S11359308284807C7671787D838A8E86817C797B73
S11359407E7F7D7A73787D828A8886817C7875797A
S11359507E8182807D7E828D908C827A706A747D55
S113596081837E7A7E8589948E817A75787C7F8125
S1135970858A87807D7A83848277655C667B88905C
S1135980947C7F858B9B8E83796E6E797E817B8CF4
S11359908483796B6E777E7D6F5B62788EA1A8912C
S11359A0827C8C968F857A5D74727E807D7F7D7F0C
S11359B0796856677B847D77697990ACBC998578E2
S11359C072798A82776F66777B82878A817F7B7F11
S11359D05B6F788A948E7F7C85ACB4A68874656787
S11359E07A7E7D6A6C757B7EA0868D817C756F71F5
S11359F07B8B9CAB8F807D9890A086705854737A73
S1135A00808E7A747D8392789E7F776E7A747E829C
S1135A1092A09484787C77938172594B5E798497B1
S1135A20838A7E858B90947E717F66717F82857C6C
S1135A308E83755B657A7F746F485E778EA18B8DDC
S1135A40807E79938B817975646C7D87858F818164
S1135A507D6860627B837D586A7990A2B39B817A6A
S1135A6071776F817C6F706C7D8E85A084807F7C64
S1135A707D727C8A9F96807D8E91BB9984736B7BAB
S1135A80717E868A72747B8693B38C847D82818CCA
S1135A907E818EA79C847883AF99867064576E7ECE
S1135AA08085968B838689979D826E676F79827ACB
S1135AB072817F857757547481735C406A79858FCE
S1135AC07A83807962668782775A605E7A827F6C95
S1135AD06D7E7E7A546B7A8A856D69788D8E968513
S1135AE0808076746A798A756C61788BA4937E7DE4
S1135AF08594877A7D8A969B907F8499A795807DEB
S1135B00817D7A7D899BB3967E8CA2BBA0827788A7
S1135B10A685847F899B8E857C70818B83756B7A47
S1135B2081817D8788988571606B9D836A5D7070C3
S1135B30817773607F8077705C767D7D786D707E11
S1135B40807A6877807D63576279877C5164768632
S1135B508980707B858D6F787A82957E807D818A3D
S1135B6079847C828B82787B889EA78E817EA6989E
S1135B70A0817D889191807E89938E7F79877B83B4
S1135B807E81898E89807C84959082737167797E09
S1135B907576567E7F797A6B7E7F7B7B70847D7D84
S1135BA087828A81797770817F7C7267737A839622
S1135BB08C8A7B809787807E7D8C787F7E80877AB5
S1135BC08A7E7A776C737D8384817E7D848D9890C0
S1135BD08276716E8D807677897B807C817A867FF0
S1135BE07C7E6E7D7C83899785817F7D8284817AAA
S1135BF06C636D7B858B68767D8872967B7D7E80F9
S1135C007E777F8090878B827D6C7E747F807D78A9
S1135C10747D8894A690838083A48183827A86830A
S1135C2080817D9080817A7574737E85848B7F807A
S1135C307F85928F8475635C73817A6E667C7D7FC9
S1135C407B7D7B807F777B757D838B9086807E7D5B
S1135C507D7C807A6F5869798A9177767C85879480
S1135C607D7F808679827E81889686817B78797C27
S1135C707F818178757B899DB09681828BA887848A
S1135C807B74857F817E7F7F8B81796D737080804B
S1135C907A7B847E828AA49186736C7E88837C5B03
S1135CA077697E7E806D7C7E7D6F6C6D7C85807D6A
S1135CB0787E8181928584775A606B7F7D7568696F
S1135CC07B878F8A7E7E867C87737C869793857D8F
S1135CD0838693868379695172797F837D737D8A04
